S01700004763634170706C69636174696F6E332E7372656359
S113000050C0000075C0000073C0000071C0000043
S11300106FC000006DC000006BC0000069C000002C
S113002067C0000065C0000063C0000061C000003C
S11300305FC000005DC000005BC0000059C000004C
S113004075C2000055C0000053C0000051C000003C
S11300504FC000004DC000004BC0000049C000006C
S113006047C0000045C0000043C0000041C000007C
S11300703FC000003DC000003BC0000039C000008C
S113008037C0000035C0000033C00000D600EC00CB
S1130090020118012E0144015A0170018801520223
S11300A0D00211241FBECFEFD0E1DEBFCDBF11E0DF
S11300B0A0E0B1E0E4E1FBE000E00BBF02C0079088
S11300C00D92A437B107D9F721E0A4E7B1E001C04C
S11300D01D92A638B207E1F710E0C1E5D0E003C0F5
S11300E02197FE01E2D3CE34D107D1F784D210C5D3
S11300F087CF60917701709178018AE591E07BD197
S1130100FC01EF3F8FEFF80721F1909175019A30D0
S113011021F481E08093740109C0911103C010920D
S1130120740108C080917401882321F09150909348
S1130130750103C09F5F9093750180917501008CD8
S1130140F18DE02D60E070E090E0099580E090E0B2
S113015008958FEF9FEF0895809176018F5F80312E
S113016018F48093760102C0109276018091760192
S11301708F7090E080959095909381018093800199
S113018080E090E008958FEF90E090937F0180935A
S11301907E0180E090E0089590E0FC013197E83022
S11301A0F10508F0B2C0EA5BFF4F7FC3662351F04C
S11301B0809180019091810181609093810180936D
S11301C08001A3C080918001909181018E7F9093E2
S11301D081018093800199C0662351F08091800150
S11301E090918101826090938101809380018DC000
S11301F080918001909181018D7F90938101809302
S1130200800183C0662351F0809180019091810127
S11302108460909381018093800177C080918001F4
S1130220909181018B7F90938101809380016DC0B7
S1130230662351F0809180019091810188609093B0
S113024081018093800161C080918001909181013E
S1130250877F909381018093800157C0662351F07A
S113026080918001909181018061909381018093BC
S113027080014BC080918001909181018F7E909389
S113028081018093800141C0662351F080918001F7
S1130290909181018062909381018093800135C0A7
S11302A080918001909181018F7D90938101809351
S11302B080012BC0662351F08091800190918101CF
S11302C0806490938101809380011FC0809180019C
S11302D0909181018F7B909381018093800115C05F
S11302E0662351F080918001909181018068909300
S11302F081018093800109C08091800190918101E6
S11303008F77909381018093800180E090E008953D
S11303108091770190917801892B19F487E791E016
S113032022D0809178018F93809177018F938DB73C
S11303309EB74C970FB6F8949EBF0FBE8DBFADB756
S1130340BEB711968CE1E6E0F1E001900D928A953A
S1130350E1F719D08DB79EB74E960FB6F8949EBFAD
S11303600FBE8DBF0895CF93DF93EC018EE190E033
S1130370A5D299838883009719F0FC01158E148EF9
S1130380DF91CF9108950F931F93CF93DF93CDB750
S1130390DEB7EBA1FCA1309779F0048D158D011522
S11303A0110511F40BC08C01D8015C968D919C91C0
S11303B05D970097C1F703C08F0101C08F018EE1E3
S11303C090E07CD2DC01F801958F848F9CE1FE01E2
S11303D0379601900D929A95E1F7D8015C96ED91CC
S11303E0FC915D97158E148E80E090E0DF91CF91A3
S11303F01F910F910895EF92FF920F931F93CF9344
S1130400DF937C01EB01209769F0B701CE0177D32C
S1130410892B59F00C8CDD8DC02D2097B1F78FEF0F
S11304209FEF05C08FEF9FEF02C08C2F9D2FDF91B0
S1130430CF911F910F91FF90EF900895CF93DF9389
S1130440FC01C48DD58D209751F0EC89FD8930973E
S113045009F009950C8CDD8DC02D2097B1F7DF9143
S1130460CF91089580E187BB82B982E88FBD8AE18C
S11304708EBD10927A0080E090E297BD86BD66B58D
S113048077B580E090E020D12DEC3CEC4CEC5DE3C2
S113049081D1EED07BBD6ABD80E090E0089580E01C
S11304A090E008958091770190917801892B19F457
S11304B087E791E058DF809178018F9380917701ED
S11304C08F938DB79EB74C970FB6F8949EBF0FBE0F
S11304D08DBFADB7BEB711968CE1E2E2F1E00190B9
S11304E00D928A95E1F74FDF8DB79EB74E960FB602
S11304F0F8949EBF0FBE8DBF089561110AC020916C
S11305007A0130917B01FC013183208380E090E00B
S113051008958FEF9FEF089587B7816087BF83B7F2
S1130520876083BF12BE80E090E008951F920F920F
S11305300FB60F9211240BB60F922F933F938F9304
S11305409F93EF93FF939091790189E8989F812D70
S1130550112482958F70392F2EE1829F3019112436
S113056031110CC0EAE7F1E0208131812F5F3F4F68
S113057031832083903F10F01092790180917901AA
S11305808F5F80937901FF91EF919F918F913F91BC
S11305902F910F900BBE0F900FBE0F901F901895C8
S11305A08091770190917801892B19F487E791E084
S11305B0DADE809178018F93809177018F938DB7E4
S11305C09EB74C970FB6F8949EBF0FBE8DBFADB7C4
S11305D0BEB711968CE1EEE3F1E001900D928A959D
S11305E0E1F7D1DE8DB79EB74E960FB6F8949EBF55
S11305F00FBE8DBF0895EF92FF920F931F93CF9379
S1130600DF9300D0CDB7DEB71A82198280E88FBF9E
S1130610809177019091780111DF60917701709159
S1130620780187E691E0E7DE7C018FEFE816F806B3
S1130630A1F009811A81D7015696ED91FC91579743
S113064060E070E0CE010196099589819A810817CE
S1130650190779F381DD4DDDECCF80E090E00F9058
S11306600F90DF91CF911F910F91FF90EF9008951C
S113067070D088F09F5790F0B92F9927B751A0F008
S1130680D1F0660F771F881F991F1AF0BA95C9F722
S113069012C0B13081F077D0B1E0089574C0672FF3
S11306A0782F8827B85F39F0B93FCCF386957795D2
S11306B06795B395D9F73EF49095809570956195BB
S11306C07F4F8F4F9F4F0895E89409C097FB3EF4E6
S11306D090958095709561957F4F8F4F9F4F99238B
S11306E0A9F0F92F96E9BB279395F6958795779509
S11306F06795B795F111F8CFFAF4BB0F11F460FFC9
S11307001BC06F5F7F4F8F4F9F4F16C0882311F020
S113071096E911C0772321F09EE8872F762F05C034
S1130720662371F096E8862F70E060E02AF09A95CF
S1130730660F771F881FDAF7880F9695879597F9C4
S1130740089557FD9058440F551F59F05F3F71F0BD
S11307504795880F97FB991F61F09F3F79F0879524
S11307600895121613061406551FF2CF4695F1DFAD
S113077008C0161617061806991FF1CF869571053D
S1130780610508940895E894BB2766277727CB0171
S113079097F908950BD078C069D028F06ED018F07E
S11307A0952309F05AC05FC01124EECFCADFA0F32D
S11307B0959FD1F3950F50E0551F629FF001729FF2
S11307C0BB27F00DB11D639FAA27F00DB11DAA1F11
S11307D0649F6627B00DA11D661F829F2227B00D5E
S11307E0A11D621F739FB00DA11D621F839FA00DE9
S11307F0611D221F749F3327A00D611D231F849F39
S1130800600D211D822F762F6A2F11249F5750408F
S11308108AF0E1F088234AF0EE0FFF1FBB1F661F2A
S1130820771F881F91505040A9F79E3F510570F0E3
S113083014C0AACF5F3FECF3983EDCF3869577951E
S11308406795B795F795E7959F5FC1F7FE2B880FDE
S1130850911D9695879597F9089597F99F6780E874
S113086070E060E008959FEF80EC089500240A94FE
S11308701616170618060906089500240A94121677
S11308801306140605060895092E0394000C11F4AA
S1130890882352F0BB0F40F4BF2B11F460FF04C057
S11308A06F5F7F4F8F4F9F4F0895EE0FFF1F002400
S11308B0001C0BBE0790F691E02D09940F931F9333
S11308C0CF93DF938230910510F482E090E0E091C1
S11308D08401F091850120E030E0A0E0B0E03097A1
S11308E019F1408151810281138148175907C8F0D9
S11308F08417950769F4109731F012960C931297A8
S113090013961C9327C0009384011093850122C081
S11309102115310519F04217530718F49A01BD0146
S1130920EF01DF01F801DBCF21153105F9F0281BB8
S1130930390B2430310580F48A819B81611571055E
S113094021F0FB019383828304C0909385018093FB
S11309508401FE01329644C0FE01E20FF31F81932D
S1130960919322503109398328833AC0209182011E
S113097030918301232B41F4209102013091030132
S11309803093830120938201209100013091010171
S11309902115310541F42DB73EB740910401509122
S11309A00501241B350BE0918201F0918301E217CC
S11309B0F307A0F42E1B3F0B2817390778F0AC017E
S11309C04E5F5F4F2417350748F04E0F5F1F50935B
S11309D08301409382018193919302C0E0E0F0E0AF
S11309E0CF01DF91CF911F910F910895CF93DF93A2
S11309F0009709F481C0FC01329713821282A091FE
S1130A008401B0918501109781F420813181820F96
S1130A10931F20918201309183012817390751F5E2
S1130A20F0938301E093820167C0ED0120E030E0A0
S1130A30CE17DF0740F44A815B819E0141155105C1
S1130A40F1F0EA01F5CFD383C28340815181840F51
S1130A50951FC817D90759F488819981840F951F68
S1130A600296918380838A819B819383828321155B
S1130A70310529F4F0938501E09384013DC0E90137
S1130A80FB83EA8349915991C40FD51FEC17FD07E5
S1130A9061F480819181840F951F0296E901998305
S1130AA08883828193819B838A83E0E0F0E01296BD
S1130AB08D919C911397009719F0FD01DC01F7CFFC
S1130AC08D919C9111979D012E5F3F4F820F931F33
S1130AD020918201309183012817390769F43097F6
S1130AE029F4109285011092840102C013821282AB
S1130AF0B0938301A0938201DF91CF910895FB010C
S1130B00DC018D91019080190110D9F3990B08959E
S1070B10F894FFCF83
S1130B140000860120006C65645F64726976657206
S1130B2400000000000000000000C3000000CC002E
S1130B3400006D6F746F725F647269766572000091
S1130B44000000000000320200004F02000074693B
S1130B546D65725F6472697665720000000000005E
S1130B6400008C027D02000000006D6F746F725FE0
S1130B746472697665720074696D65725F64726922
S1070B84766572001C
S9030000FC
