:100000004BC0000071C000006FC000006DC0000058
:100010006BC0000069C0000067C0000065C0000040
:1000200063C0000061C000005FC000005DC0000050
:100030005BC0000059C0000057C0000055C0000060
:1000400015C4000051C0000096C100004DC0000062
:100050004BC0000049C0000047C0000045C0000080
:1000600043C0000041C000003FC000003DC0000090
:100070003BC0000039C0000037C0000035C00000A0
:1000800033C0000031C000002FC00000CF012102AA
:100090006E02EE037004C60411241FBECFEFD0E140
:1000A000DEBFCDBF12E0A0E0B1E0EAE8F5E100E09C
:1000B0000BBF02C007900D92A833B107D9F722E019
:1000C000A8E3B2E001C01D92A634B207E1F710E048
:1000D000CCE4D0E003C02197FE014DD6C634D10751
:1000E000D1F77FD40C94C30A8BCF0F931F93CF9378
:1000F000DF93CDB7DEB7DA950FB6F894DEBF0FBE4B
:10010000CDBF60913B0270913C028EEA91E059D2E2
:100110008C010F3F8FEF1807A1F0AE01475F5E4FD4
:10012000C95FDE4F68817981C750D140CE01019609
:1001300055D7D8015896ED91FC915997CE0101966B
:100140000995D3950FB6F894DEBF0FBECDBFDF91F2
:10015000CF911F910F9108950F931F93CF93DF932A
:10016000EC01062F172F8FEF9FEF998388837F93E2
:100170006F938FEB91E09F938F939CD060913B02A4
:1001800070913C02802F912F1CD2998388830F900D
:100190000F900F900F90019651F489EC91E09F938E
:1001A0008F9388D00F900F908FEF9FEF09C086EF4D
:1001B00091E09F938F937ED00F900F9080E090E01E
:1001C000DF91CF911F910F910895CF93DF936091AD
:1001D0003B0270913C028FEC91E0F3D1EC01CF3FF8
:1001E0008FEFD807E1F0809138028F5F803118F4EB
:1001F0008093380202C010923802E88DF98D61E0D8
:1002000070E08FEF90E0099580913802E88DF98DCC
:1002100060E070E090E0099580E090E002C08FEF30
:100220009FEFDF91CF910895CF93C82F60913B024C
:1002300070913C028FEC91E0C4D18F3F2FEF920779
:1002400091F0DC015896ED91FC91599760E070E0D7
:1002500081E090E002C0880F991FCA95E2F70995E6
:1002600080E090E002C08FEF9FEFCF910895CF9391
:10027000C82F60913B0270913C028FEC91E0A1D1BC
:100280008F3F2FEF920791F0DC015896ED91FC9192
:10029000599761E070E081E090E002C0880F991FFB
:1002A000CA95E2F7099580E090E002C08FEF9FEFDA
:1002B000CF9108950F931F93CF93DF93CDB7DEB700
:1002C000DA950FB6F894DEBF0FBECDBF60913B024A
:1002D00070913C028AED91E074D18C010F3F8FEF59
:1002E0001807A1F0AE01475F5E4FC95FDE4F68811E
:1002F0007981C750D140CE01019670D6D801589669
:10030000ED91FC915997CE0101960995D3950FB6C1
:10031000F894DEBF0FBECDBFDF91CF911F910F913B
:1003200008951BB888E98AB986E0809395001092F9
:10033000900083E389B908958091390290913A023F
:10034000009729F010923A0210923902089580E045
:100350000895FC012081222369F09DE02A3019F4E0
:100360005D9BFECF9CB981915D9BFECF8CB92081B6
:100370002111F4CF08951F920F920FB60F921124FE
:100380008F939F938CB190E090933A0280933902BF
:100390009F918F910F900FBE0F901F901895809195
:1003A0003B0290913C02892B19F48BE392E0C1D07F
:1003B00080913C028F9380913B028F938DB79EB7C3
:1003C0004C970FB6F8949EBF0FBE8DBFADB7BEB7AA
:1003D00011968CE1E6E0F1E001900D928A95E1F74B
:1003E000B8D08DB79EB74E960FB6F8949EBF0FBE8D
:1003F0008DBF0895D898D998DA9880E090E0089554
:10040000FC0190E040E050E061E070E029B330E0B2
:10041000042E02C0359527950A94E2F720FD08C006
:100420009B01042E02C0220F331F0A94E2F7922B85
:100430004F5F5F4F4330510549F7908380E090E074
:10044000089580913B0290913C02892B19F48BE333
:1004500092E06FD080913C028F9380913B028F930A
:100460008DB79EB74C970FB6F8949EBF0FBE8DBF49
:10047000ADB7BEB711968CE1E2E2F1E001900D92CA
:100480008A95E1F766D08DB79EB74E960FB6F89471
:100490009EBF0FBE8DBF089580E090E061E070E0E8
:1004A00044B39B01082E02C0220F331F0A94E2F7C7
:1004B000242B24BB01968530910591F780E090E0D4
:1004C0000895662321F095B3892B85BB04C095B3AD
:1004D0008095892385BB80E090E0089580913B0260
:1004E00090913C02892B19F48BE392E022D0809109
:1004F0003C028F9380913B028F938DB79EB74C97B0
:100500000FB6F8949EBF0FBE8DBFADB7BEB71196A4
:100510008CE1EEE3F1E001900D928A95E1F719D0BC
:100520008DB79EB74E960FB6F8949EBF0FBE8DBF87
:100530000895CF93DF93EC018EE190E025D4998369
:100540008883009719F0FC01158E148EDF91CF91EE
:1005500008950F931F93CF93DF93CDB7DEB7EBA131
:10056000FCA1309779F0048D158D0115110511F45A
:100570000BC08C01D8015C968D919C915D97009782
:10058000C1F703C08F0101C08F018EE190E0FCD361
:10059000DC01F801958F848F9CE1FE013796019074
:1005A0000D929A95E1F7D8015C96ED91FC915D97DB
:1005B000158E148E80E090E0DF91CF911F910F9106
:1005C0000895EF92FF920F931F93CF93DF937C01D7
:1005D000EB01209769F0B701CE01F7D4892B59F0D0
:1005E0000C8CDD8DC02D2097B1F78FEF9FEF05C0EC
:1005F0008FEF9FEF02C08C2F9D2FDF91CF911F9126
:100600000F91FF90EF900895CF93DF93FC01C48D7D
:10061000D58D209751F0EC89FD89309709F0099527
:100620000C8CDD8DC02D2097B1F7DF91CF9108950F
:10063000CF93DF9387B3806787BBC49A82B18C6105
:1006400082B91A9AD2EADFBDCAE1CEBD10927A0011
:1006500080E090E297BD86BD66B577B580E090E01A
:1006600099D22DEC3CEC4CEC5DE3FAD267D27BBD29
:100670006ABD66B577B580E090E08CD22DEC3CEC9D
:100680004CEC5DE3EDD25AD279BD68BDD0938B00BE
:10069000C0938A0010928C00A1E8B0E080E28C93B5
:1006A000E0E8F0E010828C91608170E0782B80E0CF
:1006B00090E070D22DEC3CEC4CEC5DE3D1D23ED21C
:1006C0007093870060938600709385006093840028
:1006D0001DBC1CBC109289001092880080E090E044
:1006E000DF91CF910895CF92DF92EF92FF92CF9357
:1006F000DF9381111CC0C6B5D7B570E080E090E0F3
:100700004BD22DEC3CEC4CEC5DE3AAD26B017C01AE
:10071000BE0180E090E03ED29B01AC01C701B60172
:100720009FD20CD27BBD6ABD80E090E050C081308A
:10073000E1F4C6B5D7B570E080E090E02DD22DECA5
:100740003CEC4CEC5DE38CD26B017C01BE0180E0A3
:1007500090E020D29B01AC01C701B60181D2EED15D
:1007600079BD68BD80E090E032C08230B1F470E0C5
:1007700080E090E011D22DEC3CEC4CEC5DE370D2CB
:1007800020E030E040E056E46BD2D8D1709387008F
:100790006093860080E090E01AC08330B1F470E08E
:1007A00080E090E0F9D12DEC3CEC4CEC5DE358D2CC
:1007B00020E030E040E056E453D2C0D17093850091
:1007C0006093840080E090E002C08FEF9FEFDF91A4
:1007D000CF91FF90EF90DF90CF90089580913B02F2
:1007E00090913C02892B19F48BE392E0A2DE809178
:1007F0003C028F9380913B028F938DB79EB74C97AD
:100800000FB6F8949EBF0FBE8DBFADB7BEB71196A1
:100810008CE1EAE5F1E001900D928A95E1F799DE2D
:100820008DB79EB74E960FB6F8949EBF0FBE8DBF84
:10083000089561110AC020913E0230913F02FC01EF
:100840003183208380E090E008958FEF9FEF08953B
:1008500087B7816087BF83B7876083BF12BE10925E
:100860003F0210923E0280E090E008951F920F92A6
:100870000FB60F9211240BB60F922F933F938F93C5
:100880009F93EF93FF9390913D0289E8989F812D6C
:10089000112482958F70392F2EE1829F30191124F7
:1008A00031110CC0EEE3F2E0208131812F5F3F4F28
:1008B00031832083903F10F010923D0280913D02E1
:1008C0008F5F80933D02FF91EF919F918F913F91B8
:1008D0002F910F900BBE0F900FBE0F901F90189589
:1008E00080913B0290913C02892B19F48BE392E0BA
:1008F00020DE80913C028F9380913B028F938DB7D5
:100900009EB74C970FB6F8949EBF0FBE8DBFADB784
:10091000BEB711968CE1E6E7F1E001900D928A9561
:10092000E1F717DE8DB79EB74E960FB6F8949EBFCF
:100930000FBE8DBF089510929B0088E880939A00A7
:1009400086E080939D001092980083E38093990045
:100950000895CF93DF93FC0120812223A1F0DC01D5
:10096000EBE9F0E0CCE9D0E03DE02A3021F48081F1
:1009700085FFFDCF38838D91908195FFFDCF8883D2
:100980002C912111F2CFDF91CF91089580913B02FC
:1009900090913C02892B19F48BE392E0CADD80919F
:1009A0003C028F9380913B028F938DB79EB74C97FB
:1009B0000FB6F8949EBF0FBE8DBFADB7BEB71196F0
:1009C0008CE1E2E9F1E001900D928A95E1F7C1DD59
:1009D0008DB79EB74E960FB6F8949EBF0FBE8DBFD3
:1009E0000895CF93DF93CDB7DEB76D970FB6F89428
:1009F000DEBF0FBECDBF1A82198280E88FBF809103
:100A00003B0290913C0200DE86EE91E09F938F9333
:100A100051DC6AEF71E0CE0148969EDB6EEA71E030
:100A2000CE014A9699DB67E072E0CE014C9694DBEA
:100A300087E192E09F938F933DDC0F900F900F9092
:100A40000F90C12CD12C0F2EF5E2AF2EF2E0BF2E6D
:100A5000F02D4E0184E0880E911C0F2EF0E34F2EF6
:100A6000F2E05F2EF02D0F2EF4E36F2EF2E07F2EDA
:100A7000F02DE980FA80E88DF98D0688F789E02D60
:100A800060E070E0CE0101960995EA8DFB8D068845
:100A9000F789E02D09958C010097B1F01F938F9392
:100AA000BF92AF9207DC1F930F93BF92AF921DDBF3
:100AB000F401EC0DFD1D00830FB6F894DEBF0FBEF0
:100AC000CDBFC60101966C0189819A81E816F906AD
:100AD000C9F07BDBE3E0F0E0EC0FFD1FEC0DFD1D4A
:100AE00080818D3079F4F401EC0DFD1D10829F9210
:100AF0008F925F924F92DEDB0F900F900F900F90CE
:100B0000C12CD12C1B82EC8DFD8D0688F789E02D40
:100B1000CE01039609958B81882309F4AACF80FF23
:100B200009C07F926F92C6DB83E090E07DDB0F907F
:100B30000F909FCF83E090E09ADB9BCF70D088F03E
:100B40009F5790F0B92F9927B751A0F0D1F0660FB9
:100B5000771F881F991F1AF0BA95C9F712C0B130D4
:100B600081F077D0B1E0089574C0672F782F88277F
:100B7000B85F39F0B93FCCF3869577956795B39513
:100B8000D9F73EF490958095709561957F4F8F4F82
:100B90009F4F0895E89409C097FB3EF49095809587
:100BA000709561957F4F8F4F9F4F9923A9F0F92F33
:100BB00096E9BB279395F695879577956795B795B1
:100BC000F111F8CFFAF4BB0F11F460FF1BC06F5F97
:100BD0007F4F8F4F9F4F16C0882311F096E911C0A9
:100BE000772321F09EE8872F762F05C0662371F0CA
:100BF00096E8862F70E060E02AF09A95660F771FDE
:100C0000881FDAF7880F9695879597F9089557FD0D
:100C10009058440F551F59F05F3F71F04795880F6A
:100C200097FB991F61F09F3F79F087950895121601
:100C300013061406551FF2CF4695F1DF08C01616AD
:100C400017061806991FF1CF86957105610508945E
:100C50000895E894BB2766277727CB0197F9089575
:100C60000BD078C069D028F06ED018F0952309F029
:100C70005AC05FC01124EECFCADFA0F3959FD1F315
:100C8000950F50E0551F629FF001729FBB27F00D3A
:100C9000B11D639FAA27F00DB11DAA1F649F66278F
:100CA000B00DA11D661F829F2227B00DA11D621FDE
:100CB000739FB00DA11D621F839FA00D611D221F98
:100CC000749F3327A00D611D231F849F600D211D7C
:100CD000822F762F6A2F11249F5750408AF0E1F01F
:100CE00088234AF0EE0FFF1FBB1F661F771F881F68
:100CF00091505040A9F79E3F510570F014C0AACF03
:100D00005F3FECF3983EDCF3869577956795B79552
:100D1000F795E7959F5FC1F7FE2B880F911D96957C
:100D2000879597F9089597F99F6780E870E060E0EC
:100D300008959FEF80EC089500240A941616170674
:100D400018060906089500240A94121613061406BC
:100D500005060895092E0394000C11F4882352F01F
:100D6000BB0F40F4BF2B11F460FF04C06F5F7F4FD7
:100D70008F4F9F4F0895EE0FFF1F0024001C0BBEE6
:100D80000790F691E02D09940F931F93CF93DF9373
:100D90008230910510F482E090E0E0914402F091FD
:100DA000450220E030E0A0E0B0E0309719F140814A
:100DB00051810281138148175907C8F0841795079C
:100DC00069F4109731F012960C93129713961C93B6
:100DD00027C0009344021093450222C0211531051B
:100DE00019F04217530718F49A01BD01EF01DF0112
:100DF000F801DBCF21153105F9F0281B390B243020
:100E0000310580F48A819B816115710521F0FB0118
:100E10009383828304C09093450280934402FE0131
:100E2000329644C0FE01E20FF31F8193919322504A
:100E30003109398328833AC020914202309143021C
:100E4000232B41F42091020130910301309343029E
:100E500020934202209100013091010121153105BA
:100E600041F42DB73EB74091040150910501241B78
:100E7000350BE0914202F0914302E217F307A0F430
:100E80002E1B3F0B2817390778F0AC014E5F5F4FE0
:100E90002417350748F04E0F5F1F509343024093CD
:100EA00042028193919302C0E0E0F0E0CF01DF9134
:100EB000CF911F910F910895CF93DF93009709F47D
:100EC00081C0FC01329713821282A0914402B0913A
:100ED0004502109781F420813181820F931F209168
:100EE0004202309143022817390751F5F09343022B
:100EF000E093420267C0ED0120E030E0CE17DF074B
:100F000040F44A815B819E0141155105F1F0EA01EF
:100F1000F5CFD383C28340815181840F951FC817B9
:100F2000D90759F488819981840F951F029691837E
:100F300080838A819B81938382832115310529F4E3
:100F4000F0934502E09344023DC0E901FB83EA834C
:100F500049915991C40FD51FEC17FD0761F48081A9
:100F60009181840F951F0296E9019983888382817C
:100F700093819B838A83E0E0F0E012968D919C91AF
:100F80001397009719F0FD01DC01F7CF8D919C912B
:100F900011979D012E5F3F4F820F931F20914202B8
:100FA000309143022817390769F4309729F41092D9
:100FB00045021092440202C013821282B09343028F
:100FC000A0934202DF91CF910895FB01DC018D9146
:100FD000019080190110D9F3990B08950F931F9375
:100FE000CF93DF93CDB7DEB72E970FB6F894DEBF61
:100FF0000FBECDBF8C0186E08C831A8309838FEFEF
:101000009FE79E838D83CE01019610D0EF81F885F6
:10101000E00FF11F10822E960FB6F894DEBF0FBEC0
:10102000CDBFDF91CF911F910F9108952F923F92E5
:101030004F925F926F927F928F929F92AF92BF92E8
:10104000CF92DF92EF92FF920F931F93CF93DF9394
:10105000CDB7DEB72B970FB6F894DEBF0FBECDBF6E
:101060006C017B018A01FC0117821682838181FF5A
:10107000BFC1CE0101963C01F6019381F70193FDBA
:10108000859193FF81917F01882309F4ADC1853259
:1010900039F493FD859193FF81917F01853221F48D
:1010A000B60190E0D6D1E8CF912C212C312CFFE174
:1010B000F315D8F08B3279F038F4803279F083323E
:1010C000A1F4232D20611DC08D3261F0803369F4BD
:1010D000232D216016C0832D8260382EE32DE4601D
:1010E0003E2E2AC0F32DF8601DC037FC2DC020ED28
:1010F000280F2A3040F08E32B9F436FC75C1232D0A
:101100002064322E19C036FE06C08AE0989E200D5B
:101110001124922E11C0EAE02E9E200D1124222EC1
:10112000F32DF0623F2E08C08C3621F4832D8068A9
:10113000382E02C0883641F4F70193FD859193FF64
:1011400081917F018111B3CF982F9F7D955493306A
:1011500028F40C5F1F4F9FE399830DC0833631F055
:10116000833771F0833509F055C020C0F8018081C4
:1011700089830E5F1F4F88248394912C530112C0E2
:101180002801F2E04F0E511CF801A080B18036FE1C
:1011900003C0692D70E002C06FEF7FEFC5014ED133
:1011A0004C018201F32DFF773F2E15C0280122E06C
:1011B000420E511CF801A080B18036FE03C0692D9B
:1011C00070E002C06FEF7FEFC5012DD14C01F32D10
:1011D000F0683F2E820133FC19C0822D90E0881602
:1011E0009906A0F4B60180E290E033D12A94F5CFBD
:1011F000F50137FC859137FE81915F01B60190E0E2
:1012000028D121102A9421E0821A91088114910496
:1012100079F7E1C0843611F0893639F5F80137FEE7
:1012200007C060817181828193810C5F1F4F08C06C
:1012300060817181072E000C880B990B0E5F1F4F88
:10124000F32DFF763F2E97FF09C0909580957095FE
:1012500061957F4F8F4F9F4FF0683F2E2AE030E01F
:10126000A30133D1882E861844C0853731F4232D4D
:101270002F7EB22E2AE030E025C0932D997FB92E23
:101280008F36C1F018F4883579F0AEC0803719F088
:10129000883721F0A9C0E92FE061BE2EB4FE0DC051
:1012A000FB2DF460BF2E09C034FE0AC0292F266032
:1012B000B22E06C028E030E005C020E130E002C0D8
:1012C00020E132E0F801B7FE07C0608171818281C0
:1012D00093810C5F1F4F06C06081718180E090E0B8
:1012E0000E5F1F4FA301F1D0882E8618FB2DFF77CC
:1012F0003F2E36FE0DC0232D2E7FA22E891458F4CA
:1013000034FE0BC032FC09C0832D8E7EA82E05C092
:10131000B82CA32C03C0B82C01C0B92CA4FE0FC05C
:10132000FE01E80DF11D8081803321F49A2D997E14
:10133000A92E09C0A2FE06C0B394B39404C08A2D9E
:10134000867809F0B394A3FC10C0A0FE06C0B214C6
:1013500080F4280C922C9B180DC0B21458F4B601DE
:1013600080E290E076D0B394F8CFB21418F42B1842
:1013700002C0982C212CA4FE0FC0B60180E390E09F
:1013800068D0A2FE16C0A1FC03C088E790E002C0AE
:1013900088E590E0B6010CC08A2D867851F0A1FE58
:1013A00002C08BE201C080E2A7FC8DE2B60190E0B2
:1013B00050D0891430F4B60180E390E04AD09A947A
:1013C000F8CF8A94F301E80DF11D8081B60190E019
:1013D00040D08110F6CF222009F44ECEB60180E233
:1013E00090E037D02A94F7CFF6018681978102C02A
:1013F0008FEF9FEF2B960FB6F894DEBF0FBECDBFD9
:10140000DF91CF911F910F91FF90EF90DF90CF90E0
:10141000BF90AF909F908F907F906F905F904F9014
:101420003F902F900895FC0105906150704001108D
:10143000D8F7809590958E0F9F1F0895FC016150FD
:10144000704001900110D8F7809590958E0F9F1FE6
:1014500008950F931F93CF93DF93FB01238121FD09
:1014600003C08FEF9FEF2CC022FF16C0468157812B
:10147000248135814217530744F4A081B1819D0135
:101480002F5F3F4F318320838C93268137812F5FDD
:101490003F4F3783268314C08B01EC01FB0100848E
:1014A000F185E02D0995892BE1F6D80116968D91ED
:1014B0009C911797019617969C938E931697CE0141
:1014C000DF91CF911F910F910895FA01AA2728303B
:1014D00051F1203181F1E8946F936E7F6E5F7F4F01
:1014E0008F4F9F4FAF4FB1E03ED0B4E03CD0670F7D
:1014F000781F891F9A1FA11D680F791F8A1F911DD0
:10150000A11D6A0F711D811D911DA11D20D009F41F
:1015100068943F912AE0269F11243019305D319361
:10152000DEF6CF010895462F4770405D4193B3E04A
:101530000FD0C9F7F6CF462F4F70405D4A3318F0F1
:10154000495D31FD4052419302D0A9F7EACFB4E0A2
:10155000A6959795879577956795BA95C9F700975A
:101560006105710508959B01AC010A2E06945795FB
:10157000479537952795BA95C9F7620F731F841F52
:0A158000951FA01D0895F894FFCFF9
:10158A00000046022000626C7565746F6F74685FB4
:10159A006472697665720000000091019C01A901DC
:1015AA000000696E6672617265645F64726976656D
:1015BA00720000000000FA010002000000006C65E1
:1015CA00645F6472697665720000000000000000C2
:1015DA0000004C020000610200006D6F746F725FC0
:1015EA00647269766572000000000000000018034A
:1015FA0000007303000074696D65725F6472697636
:10160A0065720000000000000000280419040000B0
:10161A000000756172745F64726976657200000019
:10162A000000000000009B040000A9040000626C96
:10163A007565746F6F74685F647269766572006746
:10164A0065745F25732E2E2E006661696C0A006C24
:10165A0065645F64726976657200756172745F644D
:10166A007269766572000A0A696E69745F647269E2
:10167A007665722E2E2E4F4B0A0074696D65725F65
:10168A0064726976657200696E6672617265645F1A
:10169A00647269766572000A7374617274206C6F81
:1016AA006F700A0A00626C7565203A2025640A0088
:0816BA0025730A006F6E0A009F
:00000001FF
